:020000040800F2
:1000000068070020890100088D0100088F010008A1
:10001000910100089301000895010008000000000C
:100020000000000000000000000000009701000830
:1000300099010008000000009B0100089D010008D4
:100040009F0100089F0100089F0100089F01000810
:100050009F0100089F0100089F0100089F01000800
:100060009F0100089F0100089F0100089F010008F0
:100070009F0100089F0100089F0100089F010008E0
:100080009F0100089F0100089F0100089F010008D0
:100090009F0100089F0100089F0100089F010008C0
:1000A0009F0100089F0100089F0100089F010008B0
:1000B0009F010008BD050008000000009F01000826
:1000C0009F01000800000000000000009F010008E0
:1000D00000000000ED0500089F010008000000007E
:1000E0009F0100089F0100089F01000800F002F82E
:1000F00000F03AF80AA090E8000C82448344AAF188
:100100000107DA4501D100F02FF8AFF2090EBAE885
:100110000F0013F0010F18BFFB1A43F0010318473B
:100120001410000034100000103A24BF78C878C1C1
:10013000FAD8520724BF30C830C144BF04680C60ED
:10014000704700000023002400250026103A28BF35
:1001500078C1FBD8520728BF30C148BF0B60704739
:100160001FB51FBD10B510BD00F02FF81146FFF7E9
:10017000F7FF00F0A1FA00F04DF803B4FFF7F2FF2B
:1001800003BC00F075FA000008480047FEE7FEE7F0
:10019000FEE7FEE7FEE7FEE7FEE7FEE7FEE7FEE737
:1001A00003480449044A054B70470000ED0000086D
:1001B0006801002068070020680300206803002011
:1001C00070477047704770477047754600F028F8D1
:1001D000AE4605006946534620F00700854618B034
:1001E00020B5FFF7DDFFBDE820404FF000064FF0DF
:1001F00000074FF000084FF0000B21F00701AC465C
:10020000ACE8C009ACE8C009ACE8C009ACE8C0097A
:100210008D4670470446AFF300802046FFF7ADFFE0
:1002200000487047080100204548806940F00400FC
:10023000434988614348006820F0F0004149086064
:100240003F48806940F400703D4988610846C068B5
:1002500040F40070C8600846C06820F40070C860B0
:100260000846406820F4404048600846406840F432
:10027000004048603448006834490840324908600A
:100280000846006808600846006820F4807008602E
:10029000081D006820F00200091D0860084600687B
:1002A00020F4602008600846006840F46020086080
:1002B0000846006840F4801008600846006820F492
:1002C0000060086020482830006820F470001E4953
:1002D000283108600846006808601B480C30006838
:1002E00020F0380018490C3108600846006840F0DA
:1002F000380008601448001D006840F001001249F1
:10030000091D08600846006840F00800086000BF4A
:100310000D48001D006800F008000028F8D10A48C8
:10032000001D006840F004000749091D086000BF77
:100330000548001D006800F004000028F8D170474F
:10034000001002400008014004240140FFFFF000BB
:1003500001460F48006820F01F000D4A106010464B
:100360000068084310600A482C38006840F4800098
:10037000074A2C3A106000BF05483438006800F086
:1003800002000028F8D002481830006880B2704798
:100390003424014070B506460B460024002505E0D4
:1003A0003046FFF7D5FF0444681CC5B29D42F7DB19
:1003B000B4FBF3F080B270BD1948806940F00400CE
:1003C000174988611748006820F00F001549086038
:1003D0000846006840F003000860124808300068D2
:1003E00040F480700F49083108600D48806940F082
:1003F00008000B4988610C48006820F00F000A498A
:1004000008600846006840F00300086006480830AD
:10041000006840F4807004490831086070470000AB
:100420000010024004080140040C014000B5002007
:1004300015490861C8601420486100208861C861BE
:100440000846006840F001000860084640680F490F
:1004500008400D494860084600680D4908400A49AF
:1004600008600846006820F480200860084640685C
:1004700020F4FE0048600020886000214FF00060FA
:1004800000F008F800BD0000001002400000FFF876
:10049000FFFFF6FE024A0A400243024B1A60704711
:1004A00080FFFF1F08ED00E030B504460025FFF790
:1004B000BDFF1F48006840F480301D49086000BF40
:1004C0001B480068400C0028FAD04FF4806018499F
:1004D0004860A01EC4B20846406840EA84404860B4
:1004E0000846406840F4803048601248006840F098
:1004F0003200104908600E48006840F080700C49D6
:10050000086000BF0A480068400E0028FAD008487A
:10051000406840F002000649486005E00448406831
:10052000C0F3870505F00305022DF7D130BD0000AB
:1005300000100240002002401D4A926942F400620D
:100540001B4B9A611B4A126822F00F02194B1A606A
:100550001A46126842F00B021A60174A1080121FE6
:100560001180154A143A128842F07002124B143B63
:100570001A801A46128842F008021A800E4A0C3A73
:10058000128842F001020C4B0C3B1A800A4A1832C6
:10059000128842F40042084B18331A808022064B1E
:1005A0002C3B1A801A46128842F001021A807047CA
:1005B00000100240040801402C2C0140094800882A
:1005C00000F0010038B10848006808B9012000E0D7
:1005D0000020054908600348008820F00100014917
:1005E0000880704710040040A08121421D490988FD
:1005F00001F0200111B31B49091D0988C8B21A492D
:10060000098801F40041C9B91749098801F48041FA
:1006100061B10A2803D00021134A118020E0124959
:10062000098841F40041104A118019E00D2806D1D3
:100630000D49098841F480410B4A118010E00A49B4
:100640000988C1F30D01094A505407490988491C1A
:10065000054A118011460988C72901DD0021118052
:1006600070470000003801403C000020400000209E
:10067000014600BF704700004FF0E021096921F0FA
:1006800004014FF0E0221161C21700EB5272C2F375
:10069000C702074B1A701946097801EB4102C2EBF9
:1006A000C1114FF6FF7202EAC101024A1180704780
:1006B00032000020340000200920FFF7F5FE48201A
:1006C000FFF7DAFFFFF778FEFFF7AEFD002140F6F7
:1006D0000F60FFF731FF86E00A210120FFF75AFE85
:1006E0000446204600F060FB824600F0C9F9074648
:1006F0004FF066323C4B00F0C5F8054600F090F82C
:1007000081463A49484600F097FB054600F014FB45
:1007100084B237490988081B00F02EFB3549086070
:10072000354801684FF0804000F086FB8346314831
:100730000168584600F07DFC82463048016850460A
:1007400000F0CAF980462E480168404600F074FB6C
:100750000646284801682B48006800F06DFB824679
:10076000254801682348006800F06EFC834626484F
:100770000168584600F060FB8046514600F0ACF935
:100780000746314600F0A8F905464FF0804100F0D9
:1007900011FA1E490860084601681D48006800F00B
:1007A0009BF91B4908601448006814490860114807
:1007B00000681149086017491548006800F008FCF6
:1007C00002D814481249086013491148006800F023
:1007D000FFFA02D810480E4908600D48006800F082
:1007E000ABFA0E49088077E766664A3F000053433C
:1007F000300000201C0000202000002024000020E9
:100800001800002014000020100000202C00002000
:100810002800002000803B4500002041342C01408E
:1008200021F00042A2F16052B2F5801F01F00043B6
:1008300028BFD2F17F6C0BD95FEA001C43EAC202E9
:1008400042EB507018BF704728BF20F0010070477E
:10085000B2F5801FBCBF184670474FEA410C1CF52B
:10086000001F02D2084600F0AEBB70B500F0B4F82D
:1008700000000089FFF7F6BF4FF00040A0F58000B0
:1008800070470000DFF848C170B51CEA111E1EBF9A
:100890001CEA13159EEA0C0F95EA0C0F00F06F800E
:1008A00081EA030423EA4C134EEAD47E21EA4C1178
:1008B00041F4801143F48013AE44A1FB024CA0FB31
:1008C0000365AEF17F7E361955EB0C05A1FB034C99
:1008D0004CF10003A0FB021C16EB0C06654153F122
:1008E0000003094218BF46F0010613F4007F0BD144
:1008F0004FEA03314FEA0530340341EA155140EA2B
:1009000016506FF003020AE04FEAC3214FEAC520F8
:10091000F40241EA555140EA56506FF0020202EBF0
:100920002E4201EB025585EACE710AD05FEA440CF3
:1009300018BF24F0004450F1000041F1000120EA0A
:10094000D47040F2FE7C624500D270BDA84214BF54
:100950004FF080444FF04044002E08BF0024BEF109
:10096000806FA8BFA1F1C041BDE8704080F28280D5
:100970004FF0000001F1C04101F0004170479EEAD4
:100980000C0F0CEA131518BF95EA0C0F06D04FF0A8
:10099000000081EA030E0EF0004170BD00F01CF86B
:1009A0008900013E00F007B800F009B84FEA430C97
:1009B0005FEA5C5C08D081EA030100F05BB84FEAB3
:1009C000410C5FEA5C5CF6D14FF0000001497047D2
:1009D0000000FF070000F87F0EF1020E2EF0030E5C
:1009E0005EF8046B364205D4012A43EB030515F586
:1009F000001F12D8012841EB010C1CF5001F0CD878
:100A00000ED14FEAD17C15F5001F0CEB4C0C0CF10C
:100A1000020C08BF4CEBD37C04E04FF0080C01E063
:100A20004FEAD37C0CEB4C0526FA05F606F00706D8
:100A3000B6F1040C06D20EEB860CBDE870404CF00B
:100A4000010C6047DFE80CF0090B02024FF0004197
:100A50004FF00000A1F5002170BD19461046012895
:100A600051EB010418BFD4F5001484BF002001F03D
:100A7000004170BD0808A0F500114FEA3101704730
:100A800043004FEAD30C4FEA3C0C43401FBF4007E2
:100A90000CF1605113F0FE4F70471CF0006F03D152
:100AA00000200CF0004170470CF0004343EA507006
:100AB00010B540EACC0000F040FA00BF0000009200
:100AC0004FEA0001FFF7D6BF4FF000414FF00000A2
:100AD000A1F500217047000090EA010F48BF81F0A6
:100AE000004100F1B882421A3CBF801A89184FEACF
:100AF000D0524FF07F4C1CEA410FA2EBD15318BFEC
:100B00009CEA026F00F03B804FF0004C4CEA002062
:100B10004CEA012121FA03FC10EB0C0C1ED202F16D
:100B2000FF325FEA1C2040EBC25038BF70471CF018
:100B30007F0F4FEA400C18BFBCF17F4F38BF7047A2
:100B4000C3F12003994008BF20F00100BCF17F4FA2
:100B500038BF7047A0F1C04000F035BA4FEA3C0002
:100B6000000A40EBC25028BF1CF0FF0F4FEA400CB8
:100B7000E6D018BFBCF17F4F38BF7047EAE79CEA68
:100B8000026F05D010EA5C0F08BF00F0004070470C
:100B900010B500F0D2F900BF64FBBE3E401058BF54
:100BA000C0F14040491058BFC1F140418142EFF3CC
:100BB000008070474FF47F0C1CEAD0121EBF1CEA65
:100BC000D11392EA0C0F93EA0C0F00F0858090EAA3
:100BD000010F48BF42F4807240F4000C41F4000061
:100BE0002CF07F4120F07F4000B58142A2EB030250
:100BF0000FF2081CACEB504EC0F100009EF800E074
:100C00004FEA4E0E00FB0EFC38BF49004FEA2C1C89
:100C100002F5FA020CFB0EF34FEACE1E4FEA112C3E
:100C20004FEAC1210EEB635E42EB22420EFB0CFC4D
:100C30004FEA1C5300FB03114FEA112C4FEA01311C
:100C40000EFB0CFC4FEADC4C00FB0C11C14228BF30
:100C500009184CEB03335DF804EB10EB410143EB57
:100C6000C250B2F57C0F38BF704729D512F0F00F93
:100C70001CBF00F1C04000F000407047008182833B
:100C80008485868788898B8C8D8E8F91929395969B
:100C900097999A9C9D9FA0A2A3A5A7A8AAACAEB025
:100CA000B2B3B5B7B9BCBEC0C2C5C7C9CCCED1D42A
:100CB000D7D9DCDFE2E6E9ECF0F3F7FAFE0000005A
:100CC0004FEA400C0CF1807CBCF17E4F28BF70478E
:100CD000B0F1C04000F077B990EA010F0CEAD113EF
:100CE00048BF42F48072624538BF634507D213F4AF
:100CF0007F0F16D080EA010000F00040704710B569
:100D000000F01BF9097EFC3E00F005B880EA010006
:100D100000F00040704780EA010000F0004000F061
:100D200052B912F47F0F04BF0248704780EA0100F5
:100D300000F049B90000C07FC10DD1F19E0206DB71
:100D40004FEA002343F0004323FA02F070470042C9
:100D500007D54FEA4001B1F1FE4F02D24FF000003B
:100D6000704710B500F0E9F84992248000207047E0
:100D70006FEA20007047000010F0004148BF404279
:100D8000B0FA80F310FA03F2C3F19D030BD051EADD
:100D9000C35101EB1220530638BF704700F1010028
:100DA00008BF20F001007047B0FA80F310FA03F298
:100DB000C3F19D030AD0D90501EB1220530638BFB9
:100DC000704700F1010008BF20F0010070470000EB
:100DD00050EA010C00F113801CF5000F58BFBCF560
:100DE000000F01D48842704707D710F5000F58BF95
:100DF00011F5000F15D488427047894270471CF5E1
:100E0000000F04D5BCF5000FF7D5814270474FF0B5
:100E1000807C1CEB400F38BF1CEB410F01D281429C
:100E2000704710B500F089F8922449004FF0005047
:100E30004FF08051FFF7B2BE4FF47F0C1CEAD01286
:100E40001EBF1CEAD11392EA0C0F93EA0C0F00F0BC
:100E5000478090EA010F48BF42F480724FF0004C87
:100E60004CEA00204CEA012102EB0302A0FB011333
:100E7000A2F50002002918BF43F001035B0028BF60
:100E80004FEA330342EB22425FEA132C4CEBC25091
:100E90002EBFBCEB436FB2F57C0F70474FEA036C7B
:100EA000BCF1004F08BF20F00100B2F57C0F38BF45
:100EB00070470BD582F0FF0212F5803FC8BF704724
:100EC00000F1C040D8BF00F00040704700F5000CB2
:100ED0005FEA4C0C48BF7047B0F1C04000F073B8F7
:100EE00090EA010F0CEAD11348BF42F480726245C8
:100EF00038BF634504D280EA010000F0004070472B
:100F000010B500F01AF800BF8900013E00F007B8E4
:100F100000F009B85FEA410C5FEA1C6C08D080EA77
:100F2000010000F050B85FEA400C5FEA1C6CF6D19B
:100F30004FF00040A0F5800070470EF1020E2EF039
:100F4000030E5EF8044B244204D44FEA4102B2F18E
:100F50007F4F11D84FEA4003B3F17F4F0CD80ED129
:100F60004FEAD07CB2F17F4F0CEB4C0C0CF1020C31
:100F700008BF4CEBD17C04E04FF0080C01E04FEAD5
:100F8000D17C0CEB4C0324FA03F404F00704B4F115
:100F9000040C06D20EEB840CBDE810404CF0010CA2
:100FA0006047DFE80CF0070802024FF00040A0F5B0
:100FB000800010BD0846420018BFD2F1807288BF81
:100FC00000F0004010BDFF2141EAD050C00570473D
:100FD00051EA000C00F113801CF5000F58BFBCF55E
:100FE000000F01D48142704707D711F5000F58BF99
:100FF00010F5000F15D481427047894270471CF5E7
:10100000000F04D5BCF5000FF7D5884270474FF0AC
:10101000807C1CEB410F38BF1CEB400F01D2884293
:10102000704780EA010081EA000180EA0100FFF7D1
:10103000F8BE80F0004090EA010F7FF554AD81F0DA
:10104000004100F008B8000090EA010F48BF81F0AD
:1010500000413FF548AD421A04D882F00042A0EBAF
:10106000020011444FEAD0524FF07F4C1CEA410F6E
:10107000A2EBD15318BF9CEA026F4AD04FF0004C4C
:101080004CEA00204CEA012121FA03FCB0EB0C0CE5
:101090000FD412F0FE0F36D05FEA4C001DD50012BF
:1010A00040EBC25038BF70471CF03F0F18BF70476D
:1010B0000BE0A2F101025FEA1C2040EBC25038BFF6
:1010C00070471CF07F0F18BF7047C3F12003994091
:1010D00014BF401E20F00100704780084FEA122321
:1010E00008BF7047B0FA80FCA2EB0C02CCF1280CD0
:1010F00060FA0CF093EA122F04BF00EBC250704765
:101100004FEAC3707047130A5FEADC1008BF7047EC
:10111000F6E79CEA026F04D010EA5C0F08BF0020DB
:10112000704710B5FFF709FF40DFF63E81F0004041
:10113000704700005411000800000020400000002B
:101140002801000894110008400000202807000032
:101150004401000830313233343536373839000035
:1011600000000000CDCC4C3FCDCC4C3ECDCC4C3D16
:10117000000000000000000000000000000000006F
:1011800000000000B40000000000000000000000AB
:04119000000000005B
:04000005080000ED02
:00000001FF
